:100000000C949F020C942B0A0C94040A0C94C702C3
:100010000C94C7020C94C7020C94C7020C94C7023C
:100020000C94C7020C94C7020C94C7020C94C7022C
:100030000C94C7020C94C7020C94C7020C94C7021C
:100040000C94BA090C94C7020C94780A0C94520AC6
:100050000C94C7020C94C7020C94C7020C94C702FC
:100060000C94C7020C94C702496E697469616C698B
:100070007A696E6720454550524F4D005374726F38
:1000800062696E67204374726C2F47726579706184
:1000900072726F742E41492F4A6F6368656E2041FA
:1000A0006C74205600206E74685F7374726F6265A2
:1000B0003A20000945787465726E616C207472692B
:1000C0006767657220706572696F643A2000094540
:1000D000787465726E616C207472696767657220EE
:1000E0006D6F64653A200009646169737920636803
:1000F00061696E20667265712076616C756520207D
:100100003A200009646169737920636861696E202F
:100110006672657120696E64657820203A20002936
:10012000002C2077726974655F636F756E746572F9
:100130003D0009454550524F4D286D656D5F626128
:100140006E6B5F616464726573733D000961757401
:100150006F207374726F6265206F6E2020202020E4
:1001600020202020203A2000096572726F72206CD6
:100170006564206F6E202020202020202020202059
:10018000203A20000970726F7061676174696F6E48
:100190005F6D6F646520202020202020203A200001
:1001A0000966616E5F6F6E202020202020202020B5
:1001B0002020202020202020203A200009706F7766
:1001C00065725F6F6E2020202020202020202020BC
:1001D00020202020203A20000963616D6572612093
:1001E000776F726B73202020202020202020202079
:1001F000203A2000096E756D626572206F6620736B
:1002000074726F6265732F6379636C65203A2000A6
:100210005B75735D000964757479206C656E206F81
:1002200066206C696768742070756C7365203A206D
:1002300000487A005B75735D3D00096C656E206F48
:1002400066206C696768742070756C736520202067
:100250002020203A2000487A005B75735D3D00093C
:100260006C656E206265747765656E2074776F20AB
:10027000696D6167657320203A2000436F6E66697F
:100280006775726174696F6E0073005B75735D20D2
:100290003D20312F00202063616D657261206578FB
:1002A000706F737572652074696D65202020203A27
:1002B0002000202064757479206C656E206F6620A4
:1002C0006C696768742070756C7365203A20005BF8
:1002D00075735D203D200020206C656E206F6620C8
:1002E0006C696768742070756C736520202020200D
:1002F000203A2000487A005B75735D203D20002085
:10030000206C656E206265747765656E2074776F0A
:1003100020696D6167657320203A200056616C6921
:10032000646174696F6E0009742F542009202045A0
:100330006E61626C652F44697361626C65206578DB
:100340007465726E616C2074726967676572206D86
:100350006F64650009623C6E6F3E3C43523E207004
:10036000726F7061676174696F6E206D6F64650094
:10037000096C3C75733E3C43523E206C656E67745D
:1003800068206F66207374726F62696E6720707583
:100390006C73650009663C487A3E3C43523E2073CC
:1003A0006574206672657175656E63790009702FDA
:1003B0005020202020202020706F776572206F6EE3
:1003C0002F6F66660009612F412020202020202009
:1003D0006175746F2063616C6962726174696F6EBC
:1003E000206D6F64650009642F44202020202020A8
:1003F00020646562756767696E67206D6F6465204C
:100400006F6E2F6F66660009762F56202020202001
:10041000202066616E206F6E2F6F666600096E2F5A
:100420004E202020202020206572726F72204C45C3
:1004300044206F6E2F6F6666000930202020202038
:1004400020202020726573657420746F20666163BC
:10045000746F72792073657474696E6773000953E1
:1004600020202020202020202073657420636F6EC0
:1004700066696775726174696F6E00097320202068
:1004800020202020202072657475726E20636F6EAC
:1004900066696720737472696E67000965202020A1
:1004A0002020202020207361766520746F20454530
:1004B00050524F4D00097220202020202020202063
:1004C0007265737461727420636F6E74726F6C6C9A
:1004D00065720009682020202020202020206865E7
:1004E0006C700048656C70005374726F62696E675F
:1004F000204374726C2F47726579706172726F74E9
:100500002E41492F4A6F6368656E20416C742056F6
:100510000043616D6572612F4C69676874696E672D
:100520002053796E6368726F6E697A6174696F6E59
:1005300020283163312920560000BA0AAA0A112462
:100540001FBECFEFD8E0DEBFCDBF23E0A0EAB1E011
:1005500001C01D92A930B207E1F711E0A0E0B1E0BF
:10056000E0EBF3E302C005900D92A03AB107D9F792
:1005700012E0CEE9D2E004C02197FE010E94C51727
:10058000CD39D107C9F70E94F60A0C94CB190C9407
:1005900000008091030390910403892B51F0E091B6
:1005A000FF02F091000381E09081992319F080E02F
:1005B000089581E008953FB7F89480915602909194
:1005C0005702A0915802B091590226B5A89B05C0C8
:1005D0002F3F19F00196A11DB11D3FBFBA2FA92FC2
:1005E000982F8827BC01CD01620F711D811D911DBF
:1005F00042E0660F771F881F991F4A95D1F708952B
:100600008F929F92AF92BF92CF92DF92EF92FF9222
:100610000E94DB024B015C0188EEC82E83E0D82EDD
:10062000E12CF12C0E94DB02681979098A099B09E7
:10063000683E734081059105A8F321E0C21AD108F4
:10064000E108F10888EE880E83E0981EA11CB11C19
:10065000C114D104E104F10429F7FF90EF90DF9079
:10066000CF90BF90AF909F908F900895CF92DF92E0
:10067000EF92FF920F931F9396B186B1869581708A
:10068000880F880F990F92709F5F890F813051F00A
:10069000873009F46CC01F910F91FF90EF90DF90AD
:1006A000CF9008954091FB025091FC026091FD02B1
:1006B0007091FE0240932C0250932D0260932E0203
:1006C00070932F0210924702109248021092490232
:1006D00010924A0210925002809326026A017B0116
:1006E00094E0C91AD108E108F108C0924C02D092F6
:1006F0004D02E0924E02F0924F0200913E021091A4
:100700003F0220914002309141020C55110921090C
:1007100031090C0D1D1D2E1D3F1D0093420210932B
:1007200043022093440230934502405E5F4F6F4F77
:100730007F4F409318025093190260931A027093EE
:100740001B0290914B0291110EC080934B0281E0ED
:1007500090E0A0E0B0E08093D6019093D701A09301
:10076000D801B093D90181E08093000294CF8091A9
:100770004B02882309F48FCF81E080931C0282E032
:1007800090E0A0E0B0E08093D6019093D701A093D1
:10079000D801B093D9017FCF0895AF92BF92CF9285
:1007A000DF92EF92FF920F931F93CF93DF936C0131
:1007B0007B018B01040F151FEB015E01AE18BF0812
:1007C000C017D10759F06991D601ED91FC910190C4
:1007D000F081E02DC6010995892B79F7C501DF91DC
:1007E000CF911F910F91FF90EF90DF90CF90BF902E
:1007F000AF900895FC01538D448D252F30E0842F58
:1008000090E0821B930B541710F0CF960895019738
:100810000895FC01918D828D981761F0A28DAE0F25
:10082000BF2FB11D5D968C91928D9F5F9F73928FAC
:1008300090E008958FEF9FEF0895FC01918D828DD8
:10084000981731F0828DE80FF11D858D90E00895A5
:100850008FEF9FEF0895FC01918D228D892F90E0FD
:10086000805C9F4F821B91098F73992708958EE5B5
:1008700092E00E942B0421E0892B09F420E0822FD2
:10088000089580E090E0892B29F00E9437048111BF
:100890000C9400000895FC01A48DA80FB92FB11D80
:1008A000A35ABF4F2C91848D90E001968F739927A6
:1008B000848FA689B7892C93A089B1898C91837084
:1008C00080648C93938D848D981306C00288F3897D
:1008D000E02D80818F7D80830895EF92FF920F93AA
:1008E0001F93CF93DF93EC0181E0888F9B8D8C8DDC
:1008F00098131AC0E889F989808185FF15C09FB7D0
:10090000F894EE89FF896083E889F9898081837092
:10091000806480839FBF81E090E0DF91CF911F9141
:100920000F91FF90EF900895F62E0B8D10E00F5F62
:100930001F4F0F731127E02E8C8D8E110CC00FB638
:1009400007FCFACFE889F989808185FFF5CFCE01D0
:100950000E944B04F1CFEB8DEC0FFD2FF11DE35AFC
:10096000FF4FF0829FB7F8940B8FEA89FB89808153
:100970008062CFCF682F8EE592E00C946D040F93C8
:100980001F93CF93DF938C01D0E0C0E0F801EC0F10
:10099000FD1F6491662341F08EE592E00E946D0494
:1009A000892B11F02196F2CFCE01DF91CF911F91CB
:1009B0000F910895CF93DF93EC01888D8823B9F0D0
:1009C000AA89BB89E889F9898C9185FD03C080815A
:1009D00086FD0DC00FB607FCF7CF8C9185FFF2CFD7
:1009E000808185FFEDCFCE010E944B04E9CFDF91DE
:1009F000CF9108958091CD01882371F08091CC0131
:100A0000882351F081E080931702109246021092E1
:100A1000CD011092CC01089510921702F6CF0F93DA
:100A20001F934B9916C08091FB029091FC02A091FC
:100A3000FD02B091FE028093C8019093C901A0937A
:100A4000CA01B093CB0181E08093CD011F910F913A
:100A5000089581E08093CC010091FB021091FC028B
:100A60002091FD023091FE024091C8015091C901D0
:100A70006091CA017091CB01041B150B260B370B3B
:100A80008091130290911402A0911502B091160268
:100A90000097A105B10549F40093130210931402C5
:100AA0002093150230931602D1CF40910B02509142
:100AB0000C0260910D0270910E02480F591F6A1FBF
:100AC0007B1F401B510B620B730B769567955795F7
:100AD000479540930B0250930C0260930D02709364
:100AE0000E02800F911FA21FB31FB695A795979571
:100AF00087958093130290931402A0931502B093EC
:100B00001602A4CF2091EB01822F90E040E452E442
:100B10006FE070E0222359F0FC01EE0FFF1FEE0F93
:100B2000FF1FE65FFE4F40815181628173814093D8
:100B3000E7015093E8016093E9017093EA01FC0139
:100B4000EE0FFF1FEE0FFF1FE25FFE4F408151814E
:100B5000628173814093EC015093ED016093EE014B
:100B60007093EF012831A0F4880F991F880F991F07
:100B7000FC01EE5EFE4F80819181A281B381809362
:100B8000E1019093E201A093E301B093E4010895A1
:100B900080E49CE9A0E0B0E0F2CF8F929F92AF9208
:100BA000BF92CF92DF92EF92FF92AB01BC01EEE0D9
:100BB000F1E030E020E080E4C82E82E4D82E8FE01F
:100BC000E82EF12C81919191A191B191481759078B
:100BD0006A077B07D8F4841B950BA60BB70B8C1503
:100BE0009D05AE05BF0518F4322F6C017D012F5F06
:100BF000293141F73093EB01FF90EF90DF90CF90D8
:100C0000BF90AF909F908F900C9482054A015B013A
:100C1000881A990AAA0ABB0AD501C401E0CF6091DB
:100C200036027091370280913802909139022AE0A1
:100C300030E040E050E00E94A3172093C4013093BD
:100C4000C5014093C6015093C70108950F931F93A8
:100C5000209128023091290240912A0250912B02C2
:100C60006091C4017091C5018091C6019091C70146
:100C70000E94931700912C0210912D0220912E02B8
:100C800030912F02600F711F821F931F8B019C01F7
:100C90000450110921093109009322021093230203
:100CA000209324023093250266587B4F8F4F9F4F2D
:100CB00060931E0270931F02809320029093210282
:100CC0001F910F9108950F931F93E0E3F2E02285A7
:100CD0003385448555856091470270914802809123
:100CE000490290914A020E94931700912C021091A0
:100CF0002D0220912E0230912F02600F711F821F52
:100D0000931F8B019C0104501109210931090093A3
:100D10004C0210934D0220934E0230934F020685F1
:100D20001785208931890C55110921093109060FD0
:100D3000171F281F391F009342021093430220936C
:100D40004402309345026C5D7F4F8F4F9F4F6093FD
:100D500018027093190280931A0290931B021F913C
:100D60000F9108958F929F92AF92BF92CF92DF9290
:100D7000EF92FF928090360290903702A090380256
:100D8000B0903902A0EDB7E0A50194010E9442178E
:100D900020913A0230913B0240913C0250913D0239
:100DA0000E94A317CA01B90120ED37E040E050E0EE
:100DB0000E94A317693E73408105910520F02F5FC3
:100DC0003F4F4F4F5F4F30933402209333024427FD
:100DD0005527C501B4010E94A31769017A01C09289
:100DE0003A02D0923B02E0923C02F0923D02CA01EC
:100DF000B9012BE030E040E050E00E94A3172093BF
:100E00003E0230933F0240934002509341021092C1
:100E1000CE011092CF011092D0011092D101809298
:100E2000D2019092D301A092D401B092D501C09288
:100E3000F401D092F501E092F601F092F7012093CF
:100E4000F0013093F1014093F2015093F301FF90D0
:100E5000EF90DF90CF90BF90AF909F908F900895CC
:100E600082FF08C02C9A81FF07C02B9A80FF06C022
:100E70002A9A08952C98F7CF2B98F8CF2A9808959E
:100E8000FC0101900020E9F73197AF01481B590B95
:100E9000BC018EE592E00C94CD0384E891E00C94C3
:100EA0004007CF93DF930E94BF04EC010E944D07DF
:100EB0008C0F9D1FDF91CF9108958F929F92AF92DB
:100EC000BF920F931F93CF93DF93CDB7DEB7A19758
:100ED0000FB6F894DEBF0FBECDBF19A2423008F4A2
:100EE0004AE08E010F5D1F4F842E912CB12CA12C56
:100EF000A50194010E94A317E62FB901CA01EA30A7
:100F0000F4F4E05DD801EE938D01232B242B252BE7
:100F100079F790E080E0109719F0CD010E9440072A
:100F2000A1960FB6F894DEBF0FBECDBFDF91CF9173
:100F30001F910F91BF90AF909F908F900895E95CA3
:100F4000E1CF4AE00C945D07BC01990F880B990B27
:100F50004AE00C945D07CF93DF930E94A407EC0155
:100F60000E944D078C0F9D1FDF91CF910895CF9365
:100F7000DF9386E50E94BA0480E390E00E94A40714
:100F80008CE20E94BA04C0E3D2E06E817F81888542
:100F900099850E94A1078CE20E94BA046A857B852C
:100FA0008C859D850E94A1078CE20E94BA046E8503
:100FB0007F85888999890E94A1078CE20E94BA04E2
:100FC00080914B0290E00E94A4078CE20E94BA0438
:100FD0008A8190E00E94A4078CE20E94BA0480916A
:100FE000170290E00E94A4078CE20E94BA0480914C
:100FF000DB0190E00E94A4078CE20E94BA04809179
:10100000DA0190E00E94A4078CE20E94BA04609189
:10101000D6017091D7018091D8019091D9010E9499
:10102000A1078CE20E94BA048D8190E00E94A4077F
:10103000DF91CF910C944D07CF93DF934AE00E944C
:101040005D07EC010E944D078C0F9D1FDF91CF9132
:101050000895CF939FB7F894409152025091530254
:1010600060915402709155029FBF282F30E0220FEB
:10107000331FF901E056FE4F0190F081E02D3097CB
:1010800039F0DA01AE1BBF0BFD01E93EF34098F0E9
:10109000C82F20563E4FF9015183408385E40E94BA
:1010A000BA046C2F70E090E080E04AE00E945D0797
:1010B000CF910C944D07CF910895CF93DF930E9469
:1010C0004007EC010E944D078C0F9D1FDF91CF91CF
:1010D0000895FC0180819181009711F00C946718AC
:1010E0000895CF93DF93CAE5D2E06881798190E0DB
:1010F00080E00E943D176A817B8182E090E00E943F
:101100003D1790E080E00E941F179983888382E05A
:1011100090E00E941F179B838A83DF91CF910895EF
:10112000FC0144815581809103039091040384174D
:10113000950780F08091FF0290910003009751F095
:10114000608171816115710529F00E94BD1921E04E
:10115000892B09F020E0822F08950F931F93CF93DE
:10116000DF93EC0188819981009759F02A813B81B6
:101170002617370730F081E0DF91CF911F910F9153
:1011800008958B016F5F7F4F0E94F018009759F010
:10119000998388831B830A832C813D81232B59F7F4
:1011A000FC011082E8CF80E0E7CFEF92FF920F932F
:1011B0001F93CF93DF93EC017B018A01BA010E9458
:1011C000AD0828813981811114C02115310519F02C
:1011D000C9010E946718198218821D821C821B8215
:1011E0001A82CE01DF91CF911F910F91FF90EF9066
:1011F00008951D830C83B701C9010E94B619F1CF70
:10120000CF92DF92EF92FF920F931F93CF93DF93D2
:10121000EC01C0900303D0900403EE24E394F12C7E
:10122000C114D10429F4F12CE12CCC24C394D12C89
:10123000198218821B821A821D821C8250E040E0B3
:1012400066E871E0CE010E94D50800910303109179
:101250000403E016F10640F5C016D10608F4860135
:10126000E091FF02F0910003E00FF11FD0801082A7
:101270006091FF02709100036E0D7F1D6115710575
:10128000E9F0FB0101900020E9F73197AF01461B1F
:10129000570BCE010E94D5088091FF029091000368
:1012A000080F191FF801D082CE01DF91CF911F9155
:1012B0000F91FF90EF90DF90CF90089588819981F2
:1012C000009711F00E946718198218821D821C82F3
:1012D0001B821A82E1CFFC011182108213821282DA
:1012E00015821482FB0101900020E9F73197AF01CC
:1012F000461B570B0C94D50850E040E066E871E0BF
:101300008FEF92E00E94D5081092E00108950F93AC
:101310001F93CF93DF9300D0CDB7DEB789831A82B6
:1013200000910303109104030F5F1F4FB8018FEF6B
:1013300092E00E94AD08882399F02091FF0230913D
:1013400000038091030390910403BE016F5F7F4F00
:10135000820F931F0E94B619109304030093030396
:1013600081E08093E0010F900F90DF91CF911F916A
:101370000F9108951F920F920FB60F9211242F9381
:101380003F938F939F93AF93BF938091520290911D
:101390005302A0915402B09155023091510223E0C2
:1013A000230F2D3758F50196A11DB11D2093510231
:1013B0008093520290935302A0935402B09355022B
:1013C0008091560290915702A0915802B091590213
:1013D0000196A11DB11D8093560290935702A093D0
:1013E0005802B0935902BF91AF919F918F913F9155
:1013F0002F910F900FBE0F901F90189526E8230F86
:101400000296A11DB11DD2CF1F920F920FB60F925F
:1014100011242F933F934F935F936F937F938F93F9
:101420009F93AF93BF93EF93FF93E0910201F091ED
:1014300003010995FF91EF91BF91AF919F918F911A
:101440007F916F915F914F913F912F910F900FBEC0
:101450000F901F9018951F920F920FB60F921124A4
:101460002F933F934F935F936F937F938F939F93AC
:10147000AF93BF93EF93FF93E0910001F0910101CF
:101480000995FF91EF91BF91AF919F918F917F91BE
:101490006F915F914F913F912F910F900FBE0F90E1
:1014A0001F9018951F920F920FB60F9211242F9331
:1014B0003F934F935F936F937F938F939F93AF93DC
:1014C000BF93EF93FF938EE592E00E944B04FF9150
:1014D000EF91BF91AF919F918F917F916F915F91AC
:1014E0004F913F912F910F900FBE0F901F90189525
:1014F0001F920F920FB60F9211242F938F939F93E9
:10150000EF93FF93E0916E02F0916F028081E09182
:101510007402F091750282FD1BC090818091770268
:101520008F5F8F7320917802821741F0E0917702EC
:10153000F0E0E25AFD4F958F80937702FF91EF9193
:101540009F918F912F910F900FBE0F901F90189524
:101550008081F4CF8FEF92E00E9469080FB6F89473
:10156000A89580916000886180936000109260006F
:101570000FBE0895EEE5F2E01382128288EE93E04A
:10158000A0E0B0E084839583A683B78386E791E0EB
:101590009183808385EC90E09587848784EC90E04C
:1015A0009787868780EC90E0918B808B81EC90E030
:1015B000938B828B82EC90E0958B848B86EC90E011
:1015C000978B868B118E128E138E148E0E94DB02E7
:1015D0006093FB027093FC028093FD029093FE02E5
:1015E00066E871E08FEF92E00C946B09CF93DF9384
:1015F00000D000D000D0CDB7DEB7789484B582603B
:1016000084BD84B5816084BD85B5826085BD85B5A6
:10161000816085BD80916E00816080936E00109224
:10162000810080918100826080938100809181009F
:101630008160809381008091800081608093800030
:101640008091B10084608093B1008091B00081608E
:101650008093B00080917A00846080937A008091BA
:101660007A00826080937A0080917A008160809312
:101670007A0080917A00806880937A001092C1008D
:1016800053983C9A3D9A219A579A229A239A249ADF
:101690002A982B982C9852983898399880E00E9474
:1016A0003007259A2D9829985F98E0916E02F09165
:1016B0006F0282E08083E0916A02F0916B021082F7
:1016C000E0916C02F0916D0280E1808310927602CD
:1016D000E0917202F091730286E08083E0917002E3
:1016E000F0917102808180618083E0917002F091BD
:1016F0007102808188608083E0917002F0917102B4
:10170000808180688083E0917002F0917102808115
:101710008F7D808345988CE790E00E94BF0480E332
:1017200090E00E94A40787E891E00E945D0890E0A5
:1017300080E00E941F1790935B0280935A0282E020
:1017400090E00E941F1790935D0280935C029C01C1
:101750002E5E3F4F2115344038F442E150E0BC0189
:1017600080E392E00E940F1780915A0290915B02F1
:101770008E34964009F44FC088E690E00E945107ED
:101780008EE496E090935B0280935A0284E090E0AE
:1017900090935D0280935C020E9471081092310266
:1017A0001092300281E08093320280E49DE0A3E059
:1017B000B0E08093360290933702A0933802B09342
:1017C000390288E893E1A0E0B0E080933A02909378
:1017D0003B02A0933C02B0933D0288E290E09093DC
:1017E00034028093330286EC91E0A0E0B0E0809375
:1017F0003E0290933F02A0934002B09341021092A8
:10180000350260915C0270915D0242E150E080E33C
:1018100092E00E94251780913502882361F080E8CC
:1018200094E8AEE1B0E08093360290933702A09343
:101830003802B09339020E94B20610922802109228
:10184000290210922A0210922B020E940F0688E1B0
:101850009BE00FB6F894A895809360000FBE90931C
:1018600060001092010210924B02109250021092EE
:101870004702109248021092490210924A021092B6
:1018800046021092CD011092CC010E94DB02685FEB
:101890007F4F8F4F9F4F60932C0270932D02809348
:1018A0002E0290932F020E9463066091360270917F
:1018B000370280913802909139020E94CD050E9432
:1018C00026068FE095E090930301809302018091BA
:1018D0006900837F846080936900E99A86E393E0DE
:1018E000909301018093000180916900836080934F
:1018F0006900E89AE0E12E2EEEE03E2E0E94DB0227
:101900006093FB027093FC028093FD029093FE02B1
:10191000109150028091FB029091FC02A091FD0277
:10192000B091FE0211110C94A91440914C025091F7
:101930004D0260914E0270914F02841B950BA60BD5
:10194000B70B8F3F9F4FAF4FBF4708F079C38091D0
:101950004B028823C1F1449A80914702909148023A
:10196000A0914902B0914A020097A105B10509F082
:101970005EC380914602811126C08BE490E00197FE
:10198000F1F781E080934602459AC090CE01D09055
:10199000CF01E090D001F090D101C114D104E10455
:1019A000F10409F00DC38091FB029091FC02A0911B
:1019B000FD02B091FE028093CE019093CF01A093DF
:1019C000D001B093D10181E08093500201E04091B9
:1019D000360250913702609138027091390280913D
:1019E000270281110C9448158091FB029091FC0212
:1019F000A091FD02B091FE02C0902202D09023027D
:101A0000E0902402F09025028C199D09AE09BF09CF
:101A100084179507A607B70738F480914B02811108
:101A20002D9A81E080932702A89580911D0288233A
:101A3000A9F08091470290914802A0914902B0918B
:101A40004A02892B8A2B8B2B49F480913502811114
:101A500005C081E080934B0210921D0280911C0210
:101A6000882339F010924B0210921C0287E00E94EA
:101A7000300780914602882331F180914B02882300
:101A800011F18091FB029091FC02A091FD02B091B6
:101A9000FE02409118025091190260911A02709151
:101AA0001B02841B950BA60BB70B4091360250917D
:101AB0003702609138027091390284179507A607A2
:101AC000B70708F44598002309F4D3C08091470272
:101AD00090914802A0914902B0914A02892B8A2B29
:101AE0008B2B09F0C6C080913202882309F4C1C053
:101AF00080911702882309F4BCC0409113025091D1
:101B00001402609115027091160280910F0290915B
:101B10001002A0911102B09112026A017B01C81A51
:101B2000D90AEA0AFB0AD701C601B7FF07C0B09578
:101B3000A095909581959F4FAF4FBF4F34E0880F90
:101B4000991FAA1FBB1F3A95D1F7481759076A0773
:101B50007B0708F08EC080910B0290910C02A0913F
:101B60000D02B0910E020897A105B10508F081C0E1
:101B700040930F025093100260931102709312026F
:101B8000C0903602D0903702E0903802F0903902CF
:101B90009A01AB01293067E036074105510520F075
:101BA00028E037E040E050E0283C31054105510590
:101BB00020F428EC30E040E050E0ABE0B0E00E94E0
:101BC00042179B01AC01C701B6010E94A3173093D5
:101BD00034022093330244275527C701B6010E94DF
:101BE000A31720933A0230933B0240933C02509358
:101BF0003D02C701B6012BE030E040E050E00E941A
:101C0000A31720933E0230933F024093400250932B
:101C100041020E94B2060E940F068091FB02909141
:101C2000FC02A091FD02B091FE0240913A02509157
:101C30003B0260913C0270913D02840F951FA61FEC
:101C4000B71F4091070250910802609109027091FC
:101C50000A02841B950BA60BB70B80932C02909362
:101C60002D02A0932E02B0932F020E9463060E94C1
:101C70002606111105C080910602882309F493C13C
:101C800080913302909134020197B0E0A0E040913E
:101C90004702509148026091490270914A028417AC
:101CA0009507A607B70749F480914B02882329F0CE
:101CB0008091460281110E94FA04809100028823DB
:101CC00009F485C08091FC019091FD01A091FE0175
:101CD000B091FF0140902C0250902D0260902E0296
:101CE00070902F0220913502222309F410C720E8BA
:101CF000C22E24E8D22E2EE1E22EF12CC092360222
:101D0000D0923702E0923802F0923902A301920198
:101D1000281B390B4A0B5B0BDA01C9018093F801D0
:101D20009093F901A093FA01B093FB0120913A023C
:101D300030913B0240913C0250913D02C701B601F7
:101D40000E94A31744275527C701B6010E94A31775
:101D500069017A01C0923A02D0923B02E0923C02C1
:101D6000F0923D02CA01B9012BE030E040E050E0C2
:101D70000E94A31720933E0230933F0240934002FB
:101D80005093410283E090E09093340280933302B9
:101D9000C092F401D092F501E092F601F092F701C1
:101DA0002093F0013093F1014093F2015093F3013D
:101DB0008091460281110E94FA0410920002409222
:101DC000FC015092FD016092FE017092FF01409073
:101DD000020250900302609004027090050280900D
:101DE000360290903702A0903802B0903902C0902D
:101DF0000202D0900302E0900402F09005024091AC
:101E00000702509108026091090270910A028091C4
:101E10003E0290913F02A0914002B09141024528BC
:101E20004628472829F08C149D04AE04BF0461F4B1
:101E3000411551056105710509F43AC7481759075D
:101E40006A077B0709F434C780913502811130C7D6
:101E5000109206028091020290910302A091040266
:101E6000B0910502892B8A2B8B2B81F08091020285
:101E700090910302A0910402B09105028093360272
:101E800090933702A0933802B0933902411551055F
:101E90006105710549F19A01AB01293067E0360708
:101EA0004105510520F028E037E040E050E0283CB3
:101EB00031054105510520F428EC30E040E050E0C8
:101EC00020933E0230933F024093400250934102E0
:101ED000ABE0B0E00E94421760933A0270933B027D
:101EE00080933C0290933D021092020210920302F2
:101EF000109204021092050210920702109208023A
:101F00001092090210920A0210924702109248029F
:101F10001092490210924A020E94B20610922802C0
:101F20001092290210922A0210922B020E940F0690
:101F30004091FB025091FC026091FD027091FE0203
:101F400080913A0290913B02A0913C02B0913D02F7
:101F5000840F951FA61FB71F80932C0290932D020C
:101F6000A0932E02B0932F020E9463060E942606C1
:101F70006091360270913702809138029091390257
:101F80000E94CD05109204011092050110920601E5
:101F90001092070180913002909131020196909346
:101FA00031028093300280E090E0892B09F4A6CCC6
:101FB0000E943704882309F49DCC0E9400009ACC2B
:101FC0008090FB029090FC02A090FD02B090FE0277
:101FD000809135028111E7CC2091D2013091D3015B
:101FE0004091D4015091D501A7E0B0E00E94421782
:101FF0006C197D098E099F09860E971EA81EB91EB1
:102000006AE0880C991CAA1CBB1C6A95D1F77DE07C
:10201000B694A794979487947A95D1F78092D20139
:102020009092D301A092D401B092D501BCCC01977B
:10203000A105B10509F0C7CC80E00E943007C3CCF0
:102040008091E0018823D9F08091FB029091FC02FD
:10205000A091FD02B091FE024091DC015091DD01A2
:102060006091DE017091DF01841B950BA60BB70B0D
:1020700081349244AF40B10510F00E947C098EE596
:1020800092E00E942B04892B19F410E000E09FCC11
:102090008091FB029091FC02A091FD02B091FE02A2
:1020A0008093DC019093DD01A093DE01B093DF010A
:1020B0008EE592E00E940904082F813609F495C349
:1020C0000CF071C0813409F490C30CF050C08D3015
:1020D00031F0803309F404C38A3009F04EC06AE954
:1020E00071E0CE0101960E946B09CE0101960E941B
:1020F0009008082FCE0101960E946908002309F478
:10210000B9C3CE0101960E94000989819A81C12C30
:10211000D12C7601009721F00E94D3166B017C012F
:10212000CE0101960E946908D701C6010197A10955
:10213000B1094E97A105B10508F08DC360E472E4C2
:102140008FE090E0A70196010E94A3172C7F2093B7
:10215000020230930302409304025093050281E08F
:102160008093060290E080E00E94AB0777C3803541
:1021700009F447C324F48E3401F1802FAEC28435B4
:1021800009F458C38635C9F70E94C9028823A9F308
:1021900081E0063709F080E08093DA01063709F024
:1021A00022C35F9A07C3803709F42BC3D4F4853662
:1021B00009F4EFC28CF4843601F70E94C902882327
:1021C000E1F281E00E3609F080E08093DB010E360B
:1021D00009F007C3299AEEC2883691F08E3669F36A
:1021E000CCCF833709F4EBC22CF4823731F60E944E
:1021F00000034CCF843709F41DC3863729F2BDCFC5
:102200000E94C902882309F467C28FB7F894C0906E
:102210005202D0905302E0905402F09055028FBFCA
:10222000C701B60120E83EEE46E350E00E94A31746
:1022300029013A01C701B60128EE33E040E050E041
:102240000E94A317429CC001439C900D529C900D8C
:10225000112469017A01C81AD90AE108F108C701F5
:10226000B6012CE330E040E050E00E94A3174901A2
:102270005A012CE3289DC001299D900D1124C81AF4
:10228000D90AE108F10881E195E00E94BF0480E3EA
:1022900090E00E94AB0789E891E00E9440074AE085
:1022A000C301B2010E945D0781E991E00E944007ED
:1022B000C501B401882799274AE00E945D0784E997
:1022C00091E00E944007C701B6010E94A10787E97B
:1022D00091E00E945D0888EE94E00E94BF0480E3D4
:1022E00090E00E94A40787E891E00E945D080E94A8
:1022F0004D078BE792E00E9451078FE592E00E9424
:10230000BF0460913602709137028091380290913B
:1023100039020E94A10789E592E00E94BF04209142
:10232000360230913702409138025091390260E410
:1023300072E48FE090E00E94A317CA01B9010E94E5
:10234000A10786E592E00E9451078AE392E00E948D
:10235000BF0460913A0270913B0280913C029091DF
:102360003D020E94A10784E392E00E94BF042091F5
:102370003A0230913B0240913C0250913D0260E4B0
:1023800072E48FE090E00E94A317CA01B9010E9495
:10239000A10781E392E00E94510785E192E00E944B
:1023A000BF0460913E0270913F0280914002909183
:1023B00041020E94A10780E192E00E94510784EF50
:1023C00091E00E94BF04609133027091340290E06A
:1023D00080E04AE00E945D070E944D0788ED91E091
:1023E0000E94BF048091170290E00E94AB078CEB23
:1023F00091E00E94BF0480914B0290E00E94AB07E5
:1024000080EA91E00E94BF048091DA0190E00E948E
:10241000AB0784E891E00E94BF046091D6017091FF
:10242000D7018091D8019091D9010E941C0888E6BB
:1024300091E00E94BF048091DB0190E00E94AB0715
:102440008CE491E00E94BF048091320290E00E94EF
:10245000AB0782E391E00E94BF0460915C0270913F
:102460005D0290E080E04AE00E945D0781E291E039
:102470000E94BF04609130027091310290E080E0D0
:102480004AE00E945D078FE191E00E94510783E0DE
:1024900091E00E94BF046091EB0170E090E080E069
:1024A0004AE00E945D070E944D0787EE90E00E947F
:1024B000BF046091EC017091ED018091EE0190916B
:1024C000EF010E941C088EEC90E00E94BF048091F6
:1024D000350290E00E94AB0783EB90E00E94BF04BE
:1024E00060E874E88EE190E00E941C0885EA90E0C4
:1024F0000E94BF0460914702709148028091490296
:1025000090914A020E941C080E944D078CE193E0C2
:102510000E94510780913502882381F08091F80153
:102520009091F901A091FA01B091FB018093D20141
:102530009093D301A093D401B093D5018FEF92E093
:102540000E94BF046091D2017091D3018091D401A7
:102550009091D5010E94A10787EF92E00E94BF04ED
:102560002091D2013091D3014091D4015091D501F5
:1025700060E472E48FE090E00E94A317CA01B90101
:102580000E94A10784EF92E00E94510787ED92E03C
:102590000E94BF046091F4017091F5018091F601F1
:1025A0009091F7010E94A1078FEC92E00E94BF0476
:1025B0002091F4013091F5014091F6015091F7011D
:1025C00060E472E48FE090E00E94A317CA01B901B1
:1025D0000E94A10782EB92E00E94BF046091F0018B
:1025E0007091F1018091F2019091F301685A7F4F4F
:1025F0008F4F9F4F0E94A10785E992E00E94BF0480
:10260000609113027091140280911502909116024C
:102610006115710581059105E1F00E94A1078BE824
:1026200092E00E94BF042091130230911402409165
:1026300015025091160260E472E48FE090E00E946F
:10264000A317CA01B9010E94A10789E892E00E947C
:1026500051070E944D0783EE94E00E94510783EDDD
:1026600094E00E94510785EB94E00E9451078BE9AA
:1026700094E00E9451078BE794E00E9451078EE599
:1026800094E00E94510789E394E00E9451078DE194
:1026900094E00E94510787E094E00E94510786EE83
:1026A00093E00E94510785EC93E00E9451078DEA68
:1026B00093E00E94510784E993E00E94510780E76C
:1026C00093E00E94510784E593E00E94510787E25E
:1026D00093E00E945107DACC88E60E948709D6CCA5
:1026E0000E94C902882309F452C08EE496E09093B8
:1026F0005B0280935A0284E090E090935D028093A5
:102700005C020E947108109231021092300281E046
:102710008093320280E49DE0A3E0B0E08093360233
:1027200090933702A0933802B093390258E8C52E2F
:1027300053E1D52EE12CF12CC0923A02D0923B020B
:10274000E0923C02F0923D0288E290E090933402E5
:102750008093330226EC31E040E050E020933E02CB
:1027600030933F0240934002509341021092350251
:1027700060915C0270915D0242E150E080E392E082
:102780000E94251790E080E00E94AB0730CD80E3E7
:10279000A4CF10920401109205011092060110922C
:1027A000070180913002909131020196909331029D
:1027B0008093300290E080E00E94AB0767CC0E94DB
:1027C000C902882361F000914B02002321F081E0CF
:1027D000809301025BCC0E94B70710E0F8C883E742
:1027E0007CCF2998E7CF5F98E5CF0E94C902882364
:1027F00009F4C3CC81E0013609F080E08093320215
:10280000D9CF0E94C902882309F4B7CC003741F41C
:1028100080914B028111CECF81E080931D02CACFFF
:10282000003541F680914B02882321F281E08093AC
:102830001C02C0CF0E94C902882309F49ECC043731
:1028400021F481E080933502B5CF043509F0B2CF91
:1028500010923502AFCF81E00E9429080E947C09C6
:102860000E94C902811103C082E00E9429080E94CF
:102870007C090CCC6CE971E0CE0101960E946B09D9
:10288000CE0101960E949008082FCE0101960E9469
:102890006908002341F1CE0101960E940009898157
:1028A0009A81C12CD12C7601009721F00E94D31679
:1028B0006B017C01CE0101960E946908D701C60117
:1028C000C297A109B10987359341A105B10518F651
:1028D0004CEFC422C0920702D0920802E092090293
:1028E000F0920A023CCC6EE971E0CE0101960E94A2
:1028F0006B09CE0101960E949008082FCE01019627
:102900000E946908002309F4ABCFCE0101960E9412
:10291000000989819A81C12CD12C7601009721F080
:102920000E94D3166B017C01CE0101960E946908BA
:1029300053E0C516D104E104F10448F4C092D60175
:10294000D092D701E092D801F092D9010BCC87E068
:1029500083CF4091420250914302609144027091B2
:102960004502841B950BA60BB70B8F3F9F4FAF4FB4
:10297000BF4708F08ACB80914B02882381F04498AE
:102980008091470290914802A0914902B0914A0279
:10299000892B8A2B8B2B19F481E00E943007409100
:1029A0004702509148026091490270914A02809119
:1029B0003302909134020197B0E0A0E04817590724
:1029C0006A077B0788F44F5F5F4F6F4F7F4F4093DD
:1029D0004702509348026093490270934A02109252
:1029E00050020E94630652CB8091350281111092F1
:1029F0004B02C0903602D0903702E0903802F0903F
:102A0000390280912C0290912D02A0912E02B0915A
:102A10002F02C80ED91EEA1EFB1EC0922C02D092B5
:102A20002D02E0922E02F0922F0210924702109295
:102A300048021092490210924A0210922802109203
:102A4000290210922A0210922B02109227020E9451
:102A5000260680912602882311F210922602809188
:102A60003A0290913B02A0913C02B0913D02B69592
:102A7000A795979587958C0D9D1DAE1DBF1D8093C5
:102A80002C0290932D02A0932E02B0932F02A7CF79
:102A90008091FB029091FC02A091FD02B091FE0298
:102AA000C0901E02D0901F02E0902002F090210200
:102AB0008C199D09AE09BF0984179507A607B707AA
:102AC00010F00C94140D80914B0281112D9880917F
:102AD000280290912902A0912A02B0912B028930FC
:102AE0009105A105B10510F00C94140D0196A11DDE
:102AF000B11D8093280290932902A0932A02B093DB
:102B00002B02109227020E9426060C94140D0097A7
:102B1000A105B10509F451C984159505A605B705A8
:102B200008F04BC973016201C81AD90AEA0AFB0A04
:102B3000C092F801D092F901E092FA01F092FB0103
:102B40008090EC019090ED01A090EE01B090EF012B
:102B5000C814D904EA04FB0408F08FC08C189D083F
:102B6000AE08BF0859EE851653E09506A104B104DE
:102B700008F423C92091EB01222309F412C18091AA
:102B8000E7019091E801A091E901B091EA01C8162E
:102B9000D906EA06FB0608F079C08C199D09AE0932
:102BA000BF0988159905AA05BB0520F58091E501A7
:102BB0009091E60101979093E6018093E5010596D7
:102BC000C9F421502093EB010E9482058091EC0111
:102BD0009091ED01A091EE01B091EF01809302027E
:102BE00090930302A0930402B09305021092E601B1
:102BF0001092E5012091EB01283108F0DEC88091A8
:102C0000E1019091E201A091E301B091E401C816C5
:102C1000D906EA06FB0608F042C08C199D09AE09E8
:102C2000BF0988159905AA05BB0508F0C6C880919B
:102C3000E5019091E60101969093E6018093E5010C
:102C4000059709F0BAC82F5F2093EB010E94820517
:102C50008091EC019091ED01A091EE01B091EF0116
:102C60008093020290930302A0930402B0930502A2
:102C70001092E6011092E501A0C8B701A60148191B
:102C800059096A097B094A015B016CCFB701A601AA
:102C9000481B590B6A0B7B0BDB01CA0182CFB701C2
:102CA000A601481B590B6A0B7B0BDB01CA01B9CF8C
:102CB00080910102882329F00E94B7071092010237
:102CC00072C98091040190910501A0910601B09113
:102CD0000701B7FD68C980913002909131028035BB
:102CE000934CE8F080915C0290915D029C012C5D18
:102CF0003F4F42962F3F334010F084E090E0909396
:102D00005D0280935C021092040110920501109202
:102D10000601109207011092310210923002809148
:102D20000401909105018231910560F4FC01E05DA0
:102D3000FD4F20915C0230915D026081820F931FF4
:102D40000E942F178091040190910501A091060126
:102D5000B09107010196A11DB11D82319105A10518
:102D6000B1054CF48093040190930501A0930601F2
:102D7000B093070118C9CC24CA94DC2C7601C09208
:102D80000401D0920501E0920601F09207018091C2
:102D9000300290913102892B09F005C90E94710817
:102DA00002C920E02CCF1F93FC0199278827BC0182
:102DB000E89411911032E9F3193010F01E30C8F385
:102DC0001B3251F01D3249F4689406C00E94FA1675
:102DD000610F711D811D911D119110531A30B0F3B7
:102DE0003EF490958095709561957F4F8F4F9F4FE2
:102DF0001F910895592F482F372F262F660F771FC1
:102E0000881F991F660F771F881F991F620F731FF6
:102E1000841F951F660F771F881F991F0895DC0177
:102E2000CB01FC01F999FECF06C0F2BDE1BDF89AD5
:102E3000319600B40D9241505040B8F70895A8E182
:102E4000B0E042E050E00C941117DC01CB0103C06C
:102E50002D910E94301741505040D0F70895262FF1
:102E6000F999FECF1FBA92BD81BD20BD0FB6F8946F
:102E7000FA9AF99A0FBE019608950E942F17272FEC
:102E80000C9430170E948417A59F900DB49F900D4D
:102E9000A49F800D911D112408952F923F924F926F
:102EA0005F926F927F928F929F92AF92BF92CF92DA
:102EB000DF92EF92FF920F931F93CF93DF93CDB7E3
:102EC000DEB7CA1BDB0B0FB6F894DEBF0FBECDBF5B
:102ED00009942A88398848885F846E847D848C842C
:102EE0009B84AA84B984C884DF80EE80FD800C8135
:102EF0001B81AA81B981CE0FD11D0FB6F894DEBF18
:102F00000FBECDBFED010895A29FB001B39FC001D8
:102F1000A39F700D811D1124911DB29F700D811D05
:102F20001124911D0895DB018F939F930E944217F6
:102F3000BF91AF91A29F800D911DA39F900DB29F55
:102F4000900D11240895A1E21A2EAA1BBB1BFD01AE
:102F50000DC0AA1FBB1FEE1FFF1FA217B307E40778
:102F6000F50720F0A21BB30BE40BF50B661F771FD0
:102F7000881F991F1A9469F76095709580959095B0
:102F80009B01AC01BD01CF010895EE0FFF1F05901D
:102F9000F491E02D09940F931F93CF93DF93823028
:102FA000910510F482E090E0E0910703F0910803AE
:102FB00030E020E0B0E0A0E0309799F42115310531
:102FC00009F44AC0281B390B24303105D8F58A8111
:102FD0009B816115710589F1FB0193838283FE0159
:102FE00011C0408151810281138148175907E0F0D7
:102FF0004817590799F4109761F012960C9312979D
:1030000013961C933296CF01DF91CF911F910F91B0
:1030100008950093070310930803F4CF2115310599
:1030200051F04217530738F0A901DB019A01BD01A5
:10303000DF01F801C1CFEF01F9CF9093080380932E
:103040000703CDCFFE01E20FF31F8193919322502E
:10305000310939832883D7CF2091050330910603A6
:10306000232B41F420910A0130910B013093060388
:1030700020930503209108013091090121153105A4
:1030800041F42DB73EB740910C0150910D01241B26
:10309000350BE0910503F0910603E217F307A0F466
:1030A0002E1B3F0B2817390778F0AC014E5F5F4F9E
:1030B0002417350748F04E0F5F1F509306034093C7
:1030C0000503819391939FCFF0E0E0E09CCFCF93F5
:1030D000DF930097E9F0FC01329713821282A091EE
:1030E0000703B0910803ED0130E020E01097A1F450
:1030F00020813181820F931F2091050330910603B7
:103100002817390709F061C0F0930603E09305031F
:10311000DF91CF910895EA01CE17DF07E8F54A81E4
:103120005B819E0141155105B1F7E901FB83EA83FB
:1031300049915991C40FD51FEC17FD0761F48081A7
:1031400091810296840F951FE9019983888382817A
:1031500093819B838A83F0E0E0E012968D919C91AD
:1031600013970097B9F52D913C911197CD010296D7
:10317000820F931F2091050330910603281739070A
:1031800039F6309751F51092080310920703B09367
:103190000603A0930503BCCFD383C2834081518132
:1031A000840F951FC817D90761F44E5F5F4F888160
:1031B0009981480F591F518340838A819B81938352
:1031C00082832115310509F0B0CFF0930803E09315
:1031D00007039ECFFD01DC01C0CF13821282D7CF3F
:1031E000B0E0A0E0E6EFF8E10C944F178C010097F7
:1031F00051F4CB010E94CB178C01C801CDB7DEB7CB
:10320000E0E10C946B17FC01E60FF71F9C012250C4
:103210003109E217F30708F49DC0D901CD91DC9183
:103220001197C617D70798F0C530D10530F3CE01F6
:1032300004978617970708F3C61BD70B2297C193ED
:10324000D1936D937C93CF010E946718D6CF5B0119
:10325000AC1ABD0A4C018C0E9D1EA0910703B091C3
:103260000803512C412CF12CE12C109731F5809161
:103270000503909106038815990509F05CC0461670
:10328000570608F058C080910801909109010097F5
:1032900041F48DB79EB740910C0150910D01841BF4
:1032A000950BE817F90708F055C0F0930603E09373
:1032B0000503F90171836083A0CF8D919C911197D3
:1032C00012966C90129713967C901397A815B905D7
:1032D00059F56C0142E0C40ED11CCA14DB0420F184
:1032E000AC014A195B09DA011296159780F06282E7
:1032F000738251834083D9016D937C93E114F1046F
:1033000071F0D7011396FC93EE93129776CF229625
:103310008C0F9D1FF90191838083F301EFCFF09310
:103320000803E093070369CF4816590608F42C01F7
:103330007D01D3019ACFCB010E94CB177C0100976E
:1033400049F0AE01B8010E94AD19C8010E9467188A
:10335000870153CF10E000E050CFFB01DC0102C039
:1033600001900D9241505040D8F70895FB01DC01C7
:1033700001900D920020E1F70895FB01DC0141501E
:10338000504030F08D910190801919F40020B9F768
:10339000881B990B089512E0CEE9D2E004C0FE012B
:1033A0000E94C5172196CF39D107C9F7F894FFCFEE
:1033B000CC03CC03FFFFFFFF000009038000404265
:1033C0000F0020A107001416050090D00300400D47
:1033D0000300088B0200082E020048E8010004B236
:1033E0000100A08601001C63010084450100782CC7
:1033F0000100041701006804010024F40000C4E582
:10340000000000D9000094CD000050C3000000BAB5
:1034100000008CB10000D4A90000C0A20000409CB4
:103420000000000000006D04CD03FA03DA042B0451
:1034300009041D040D0A005200757074696D652041
:10344000006820006D200073200066006C006200A0
:00000001FF
